{
	"Soidity basics/Basics2.sol": {
		"DecsionMaking": {
			"abi": [
				{
					"inputs": [],
					"name": "validateOranges",
					"outputs": [
						{
							"internalType": "bool",
							"name": "",
							"type": "bool"
						}
					],
					"stateMutability": "view",
					"type": "function"
				}
			],
			"devdoc": {
				"kind": "dev",
				"methods": {},
				"version": 1
			},
			"evm": {
				"assembly": "    /* \"Soidity basics/Basics2.sol\":38:457  contract DecsionMaking {\r... */\n  mstore(0x40, 0x80)\n    /* \"Soidity basics/Basics2.sol\":188:189  4 */\n  0x04\n    /* \"Soidity basics/Basics2.sol\":173:189  uint oranges = 4 */\n  0x00\n  sstore\n    /* \"Soidity basics/Basics2.sol\":38:457  contract DecsionMaking {\r... */\n  callvalue\n  dup1\n  iszero\n  tag_1\n  jumpi\n  0x00\n  dup1\n  revert\ntag_1:\n  pop\n  dataSize(sub_0)\n  dup1\n  dataOffset(sub_0)\n  0x00\n  codecopy\n  0x00\n  return\nstop\n\nsub_0: assembly {\n        /* \"Soidity basics/Basics2.sol\":38:457  contract DecsionMaking {\r... */\n      mstore(0x40, 0x80)\n      callvalue\n      dup1\n      iszero\n      tag_1\n      jumpi\n      0x00\n      dup1\n      revert\n    tag_1:\n      pop\n      jumpi(tag_2, lt(calldatasize, 0x04))\n      shr(0xe0, calldataload(0x00))\n      dup1\n      0xb4a4fad8\n      eq\n      tag_3\n      jumpi\n    tag_2:\n      0x00\n      dup1\n      revert\n        /* \"Soidity basics/Basics2.sol\":198:452  function validateOranges() public view returns(bool) {\r... */\n    tag_3:\n      tag_4\n      tag_5\n      jump\t// in\n    tag_4:\n      mload(0x40)\n      tag_6\n      swap2\n      swap1\n      tag_7\n      jump\t// in\n    tag_6:\n      mload(0x40)\n      dup1\n      swap2\n      sub\n      swap1\n      return\n    tag_5:\n        /* \"Soidity basics/Basics2.sol\":245:249  bool */\n      0x00\n        /* \"Soidity basics/Basics2.sol\":359:360  5 */\n      0x05\n        /* \"Soidity basics/Basics2.sol\":347:354  oranges */\n      sload(0x00)\n        /* \"Soidity basics/Basics2.sol\":347:360  oranges ==  5 */\n      eq\n        /* \"Soidity basics/Basics2.sol\":344:445  if(oranges ==  5) {\r... */\n      iszero\n      tag_9\n      jumpi\n        /* \"Soidity basics/Basics2.sol\":384:388  true */\n      0x01\n        /* \"Soidity basics/Basics2.sol\":377:388  return true */\n      swap1\n      pop\n      jump(tag_8)\n        /* \"Soidity basics/Basics2.sol\":344:445  if(oranges ==  5) {\r... */\n    tag_9:\n        /* \"Soidity basics/Basics2.sol\":428:433  false */\n      0x00\n        /* \"Soidity basics/Basics2.sol\":421:433  return false */\n      swap1\n      pop\n        /* \"Soidity basics/Basics2.sol\":198:452  function validateOranges() public view returns(bool) {\r... */\n    tag_8:\n      swap1\n      jump\t// out\n        /* \"#utility.yul\":7:116   */\n    tag_12:\n        /* \"#utility.yul\":88:109   */\n      tag_14\n        /* \"#utility.yul\":103:108   */\n      dup2\n        /* \"#utility.yul\":88:109   */\n      tag_15\n      jump\t// in\n    tag_14:\n        /* \"#utility.yul\":83:86   */\n      dup3\n        /* \"#utility.yul\":76:110   */\n      mstore\n        /* \"#utility.yul\":7:116   */\n      pop\n      pop\n      jump\t// out\n        /* \"#utility.yul\":122:332   */\n    tag_7:\n        /* \"#utility.yul\":209:213   */\n      0x00\n        /* \"#utility.yul\":247:249   */\n      0x20\n        /* \"#utility.yul\":236:245   */\n      dup3\n        /* \"#utility.yul\":232:250   */\n      add\n        /* \"#utility.yul\":224:250   */\n      swap1\n      pop\n        /* \"#utility.yul\":260:325   */\n      tag_17\n        /* \"#utility.yul\":322:323   */\n      0x00\n        /* \"#utility.yul\":311:320   */\n      dup4\n        /* \"#utility.yul\":307:324   */\n      add\n        /* \"#utility.yul\":298:304   */\n      dup5\n        /* \"#utility.yul\":260:325   */\n      tag_12\n      jump\t// in\n    tag_17:\n        /* \"#utility.yul\":122:332   */\n      swap3\n      swap2\n      pop\n      pop\n      jump\t// out\n        /* \"#utility.yul\":338:428   */\n    tag_15:\n        /* \"#utility.yul\":372:379   */\n      0x00\n        /* \"#utility.yul\":415:420   */\n      dup2\n        /* \"#utility.yul\":408:421   */\n      iszero\n        /* \"#utility.yul\":401:422   */\n      iszero\n        /* \"#utility.yul\":390:422   */\n      swap1\n      pop\n        /* \"#utility.yul\":338:428   */\n      swap2\n      swap1\n      pop\n      jump\t// out\n\n    auxdata: 0xa2646970667358221220df34a928a2e810f02e7f217bac0c38fdf797ada4cf2d3dd6b6bfef8069826b0a64736f6c63430008070033\n}\n",
				"bytecode": {
					"linkReferences": {},
					"object": "6080604052600460005534801561001557600080fd5b5060cb806100246000396000f3fe6080604052348015600f57600080fd5b506004361060285760003560e01c8063b4a4fad814602d575b600080fd5b60336047565b604051603e91906070565b60405180910390f35b600060056000541415605b57600190506060565b600090505b90565b606a816089565b82525050565b6000602082019050608360008301846063565b92915050565b6000811515905091905056fea2646970667358221220df34a928a2e810f02e7f217bac0c38fdf797ada4cf2d3dd6b6bfef8069826b0a64736f6c63430008070033",
					"opcodes": "PUSH1 0x80 PUSH1 0x40 MSTORE PUSH1 0x4 PUSH1 0x0 SSTORE CALLVALUE DUP1 ISZERO PUSH2 0x15 JUMPI PUSH1 0x0 DUP1 REVERT JUMPDEST POP PUSH1 0xCB DUP1 PUSH2 0x24 PUSH1 0x0 CODECOPY PUSH1 0x0 RETURN INVALID PUSH1 0x80 PUSH1 0x40 MSTORE CALLVALUE DUP1 ISZERO PUSH1 0xF JUMPI PUSH1 0x0 DUP1 REVERT JUMPDEST POP PUSH1 0x4 CALLDATASIZE LT PUSH1 0x28 JUMPI PUSH1 0x0 CALLDATALOAD PUSH1 0xE0 SHR DUP1 PUSH4 0xB4A4FAD8 EQ PUSH1 0x2D JUMPI JUMPDEST PUSH1 0x0 DUP1 REVERT JUMPDEST PUSH1 0x33 PUSH1 0x47 JUMP JUMPDEST PUSH1 0x40 MLOAD PUSH1 0x3E SWAP2 SWAP1 PUSH1 0x70 JUMP JUMPDEST PUSH1 0x40 MLOAD DUP1 SWAP2 SUB SWAP1 RETURN JUMPDEST PUSH1 0x0 PUSH1 0x5 PUSH1 0x0 SLOAD EQ ISZERO PUSH1 0x5B JUMPI PUSH1 0x1 SWAP1 POP PUSH1 0x60 JUMP JUMPDEST PUSH1 0x0 SWAP1 POP JUMPDEST SWAP1 JUMP JUMPDEST PUSH1 0x6A DUP2 PUSH1 0x89 JUMP JUMPDEST DUP3 MSTORE POP POP JUMP JUMPDEST PUSH1 0x0 PUSH1 0x20 DUP3 ADD SWAP1 POP PUSH1 0x83 PUSH1 0x0 DUP4 ADD DUP5 PUSH1 0x63 JUMP JUMPDEST SWAP3 SWAP2 POP POP JUMP JUMPDEST PUSH1 0x0 DUP2 ISZERO ISZERO SWAP1 POP SWAP2 SWAP1 POP JUMP INVALID LOG2 PUSH5 0x6970667358 0x22 SLT KECCAK256 0xDF CALLVALUE 0xA9 0x28 LOG2 0xE8 LT CREATE 0x2E PUSH32 0x217BAC0C38FDF797ADA4CF2D3DD6B6BFEF8069826B0A64736F6C634300080700 CALLER "
				},
				"gasEstimates": {
					"creation": {
						"codeDepositCost": "40600",
						"executionCost": "22199",
						"totalCost": "62799"
					},
					"external": {
						"validateOranges()": "2458"
					}
				},
				"methodIdentifiers": {
					"validateOranges()": "b4a4fad8"
				}
			},
			"storageLayout": {
				"storage": [
					{
						"astId": 4,
						"contract": "Soidity basics/Basics2.sol:DecsionMaking",
						"label": "oranges",
						"offset": 0,
						"slot": "0",
						"type": "t_uint256"
					}
				],
				"types": {
					"t_uint256": {
						"encoding": "inplace",
						"label": "uint256",
						"numberOfBytes": "32"
					}
				}
			},
			"userdoc": {
				"kind": "user",
				"methods": {},
				"version": 1
			}
		}
	}
}