{
	"Soidity basics/assignment.sol": {
		"Assignemnt": {
			"abi": [
				{
					"inputs": [],
					"name": "airDrop",
					"outputs": [
						{
							"internalType": "uint256",
							"name": "",
							"type": "uint256"
						}
					],
					"stateMutability": "view",
					"type": "function"
				}
			],
			"devdoc": {
				"kind": "dev",
				"methods": {},
				"version": 1
			},
			"evm": {
				"assembly": "    /* \"Soidity basics/assignment.sol\":476:738  contract Assignemnt {\r... */\n  mstore(0x40, 0x80)\n    /* \"Soidity basics/assignment.sol\":526:528  20 */\n  0x14\n    /* \"Soidity basics/assignment.sol\":503:528  uint stackingWallet  = 20 */\n  0x00\n  sstore\n    /* \"Soidity basics/assignment.sol\":476:738  contract Assignemnt {\r... */\n  callvalue\n  dup1\n  iszero\n  tag_1\n  jumpi\n  0x00\n  dup1\n  revert\ntag_1:\n  pop\n  dataSize(sub_0)\n  dup1\n  dataOffset(sub_0)\n  0x00\n  codecopy\n  0x00\n  return\nstop\n\nsub_0: assembly {\n        /* \"Soidity basics/assignment.sol\":476:738  contract Assignemnt {\r... */\n      mstore(0x40, 0x80)\n      callvalue\n      dup1\n      iszero\n      tag_1\n      jumpi\n      0x00\n      dup1\n      revert\n    tag_1:\n      pop\n      jumpi(tag_2, lt(calldatasize, 0x04))\n      shr(0xe0, calldataload(0x00))\n      dup1\n      0xca5d0880\n      eq\n      tag_3\n      jumpi\n    tag_2:\n      0x00\n      dup1\n      revert\n        /* \"Soidity basics/assignment.sol\":535:735  function airDrop() public view returns(uint) {\r... */\n    tag_3:\n      tag_4\n      tag_5\n      jump\t// in\n    tag_4:\n      mload(0x40)\n      tag_6\n      swap2\n      swap1\n      tag_7\n      jump\t// in\n    tag_6:\n      mload(0x40)\n      dup1\n      swap2\n      sub\n      swap1\n      return\n    tag_5:\n        /* \"Soidity basics/assignment.sol\":574:578  uint */\n      0x00\n        /* \"Soidity basics/assignment.sol\":612:614  10 */\n      0x0a\n        /* \"Soidity basics/assignment.sol\":594:608  stackingWallet */\n      sload(0x00)\n        /* \"Soidity basics/assignment.sol\":594:614  stackingWallet == 10 */\n      eq\n        /* \"Soidity basics/assignment.sol\":591:728  if(stackingWallet == 10 ) {\r... */\n      iszero\n      tag_9\n      jumpi\n        /* \"Soidity basics/assignment.sol\":656:658  10 */\n      0x0a\n        /* \"Soidity basics/assignment.sol\":639:653  stackingWallet */\n      sload(0x00)\n        /* \"Soidity basics/assignment.sol\":639:658  stackingWallet + 10 */\n      tag_10\n      swap2\n      swap1\n      tag_11\n      jump\t// in\n    tag_10:\n        /* \"Soidity basics/assignment.sol\":632:658  return stackingWallet + 10 */\n      swap1\n      pop\n      jump(tag_8)\n        /* \"Soidity basics/assignment.sol\":591:728  if(stackingWallet == 10 ) {\r... */\n    tag_9:\n        /* \"Soidity basics/assignment.sol\":715:716  1 */\n      0x01\n        /* \"Soidity basics/assignment.sol\":698:712  stackingWallet */\n      sload(0x00)\n        /* \"Soidity basics/assignment.sol\":698:716  stackingWallet + 1 */\n      tag_13\n      swap2\n      swap1\n      tag_11\n      jump\t// in\n    tag_13:\n        /* \"Soidity basics/assignment.sol\":691:716  return stackingWallet + 1 */\n      swap1\n      pop\n        /* \"Soidity basics/assignment.sol\":535:735  function airDrop() public view returns(uint) {\r... */\n    tag_8:\n      swap1\n      jump\t// out\n        /* \"#utility.yul\":7:125   */\n    tag_15:\n        /* \"#utility.yul\":94:118   */\n      tag_17\n        /* \"#utility.yul\":112:117   */\n      dup2\n        /* \"#utility.yul\":94:118   */\n      tag_18\n      jump\t// in\n    tag_17:\n        /* \"#utility.yul\":89:92   */\n      dup3\n        /* \"#utility.yul\":82:119   */\n      mstore\n        /* \"#utility.yul\":7:125   */\n      pop\n      pop\n      jump\t// out\n        /* \"#utility.yul\":131:353   */\n    tag_7:\n        /* \"#utility.yul\":224:228   */\n      0x00\n        /* \"#utility.yul\":262:264   */\n      0x20\n        /* \"#utility.yul\":251:260   */\n      dup3\n        /* \"#utility.yul\":247:265   */\n      add\n        /* \"#utility.yul\":239:265   */\n      swap1\n      pop\n        /* \"#utility.yul\":275:346   */\n      tag_20\n        /* \"#utility.yul\":343:344   */\n      0x00\n        /* \"#utility.yul\":332:341   */\n      dup4\n        /* \"#utility.yul\":328:345   */\n      add\n        /* \"#utility.yul\":319:325   */\n      dup5\n        /* \"#utility.yul\":275:346   */\n      tag_15\n      jump\t// in\n    tag_20:\n        /* \"#utility.yul\":131:353   */\n      swap3\n      swap2\n      pop\n      pop\n      jump\t// out\n        /* \"#utility.yul\":359:664   */\n    tag_11:\n        /* \"#utility.yul\":399:402   */\n      0x00\n        /* \"#utility.yul\":418:438   */\n      tag_22\n        /* \"#utility.yul\":436:437   */\n      dup3\n        /* \"#utility.yul\":418:438   */\n      tag_18\n      jump\t// in\n    tag_22:\n        /* \"#utility.yul\":413:438   */\n      swap2\n      pop\n        /* \"#utility.yul\":452:472   */\n      tag_23\n        /* \"#utility.yul\":470:471   */\n      dup4\n        /* \"#utility.yul\":452:472   */\n      tag_18\n      jump\t// in\n    tag_23:\n        /* \"#utility.yul\":447:472   */\n      swap3\n      pop\n        /* \"#utility.yul\":606:607   */\n      dup3\n        /* \"#utility.yul\":538:604   */\n      0xffffffffffffffffffffffffffffffffffffffffffffffffffffffffffffffff\n        /* \"#utility.yul\":534:608   */\n      sub\n        /* \"#utility.yul\":531:532   */\n      dup3\n        /* \"#utility.yul\":528:609   */\n      gt\n        /* \"#utility.yul\":525:632   */\n      iszero\n      tag_24\n      jumpi\n        /* \"#utility.yul\":612:630   */\n      tag_25\n      tag_26\n      jump\t// in\n    tag_25:\n        /* \"#utility.yul\":525:632   */\n    tag_24:\n        /* \"#utility.yul\":656:657   */\n      dup3\n        /* \"#utility.yul\":653:654   */\n      dup3\n        /* \"#utility.yul\":649:658   */\n      add\n        /* \"#utility.yul\":642:658   */\n      swap1\n      pop\n        /* \"#utility.yul\":359:664   */\n      swap3\n      swap2\n      pop\n      pop\n      jump\t// out\n        /* \"#utility.yul\":670:747   */\n    tag_18:\n        /* \"#utility.yul\":707:714   */\n      0x00\n        /* \"#utility.yul\":736:741   */\n      dup2\n        /* \"#utility.yul\":725:741   */\n      swap1\n      pop\n        /* \"#utility.yul\":670:747   */\n      swap2\n      swap1\n      pop\n      jump\t// out\n        /* \"#utility.yul\":753:933   */\n    tag_26:\n        /* \"#utility.yul\":801:878   */\n      0x4e487b7100000000000000000000000000000000000000000000000000000000\n        /* \"#utility.yul\":798:799   */\n      0x00\n        /* \"#utility.yul\":791:879   */\n      mstore\n        /* \"#utility.yul\":898:902   */\n      0x11\n        /* \"#utility.yul\":895:896   */\n      0x04\n        /* \"#utility.yul\":888:903   */\n      mstore\n        /* \"#utility.yul\":922:926   */\n      0x24\n        /* \"#utility.yul\":919:920   */\n      0x00\n        /* \"#utility.yul\":912:927   */\n      revert\n\n    auxdata: 0xa264697066735822122094428b32fc4c64d594094955664f0b40eb71abd73f67beaea0dc4fb2d68053ae64736f6c63430008070033\n}\n",
				"bytecode": {
					"linkReferences": {},
					"object": "6080604052601460005534801561001557600080fd5b50610175806100256000396000f3fe608060405234801561001057600080fd5b506004361061002b5760003560e01c8063ca5d088014610030575b600080fd5b61003861004e565b6040516100459190610095565b60405180910390f35b6000600a600054141561007157600a60005461006a91906100b0565b9050610083565b600160005461008091906100b0565b90505b90565b61008f81610106565b82525050565b60006020820190506100aa6000830184610086565b92915050565b60006100bb82610106565b91506100c683610106565b9250827fffffffffffffffffffffffffffffffffffffffffffffffffffffffffffffffff038211156100fb576100fa610110565b5b828201905092915050565b6000819050919050565b7f4e487b7100000000000000000000000000000000000000000000000000000000600052601160045260246000fdfea264697066735822122094428b32fc4c64d594094955664f0b40eb71abd73f67beaea0dc4fb2d68053ae64736f6c63430008070033",
					"opcodes": "PUSH1 0x80 PUSH1 0x40 MSTORE PUSH1 0x14 PUSH1 0x0 SSTORE CALLVALUE DUP1 ISZERO PUSH2 0x15 JUMPI PUSH1 0x0 DUP1 REVERT JUMPDEST POP PUSH2 0x175 DUP1 PUSH2 0x25 PUSH1 0x0 CODECOPY PUSH1 0x0 RETURN INVALID PUSH1 0x80 PUSH1 0x40 MSTORE CALLVALUE DUP1 ISZERO PUSH2 0x10 JUMPI PUSH1 0x0 DUP1 REVERT JUMPDEST POP PUSH1 0x4 CALLDATASIZE LT PUSH2 0x2B JUMPI PUSH1 0x0 CALLDATALOAD PUSH1 0xE0 SHR DUP1 PUSH4 0xCA5D0880 EQ PUSH2 0x30 JUMPI JUMPDEST PUSH1 0x0 DUP1 REVERT JUMPDEST PUSH2 0x38 PUSH2 0x4E JUMP JUMPDEST PUSH1 0x40 MLOAD PUSH2 0x45 SWAP2 SWAP1 PUSH2 0x95 JUMP JUMPDEST PUSH1 0x40 MLOAD DUP1 SWAP2 SUB SWAP1 RETURN JUMPDEST PUSH1 0x0 PUSH1 0xA PUSH1 0x0 SLOAD EQ ISZERO PUSH2 0x71 JUMPI PUSH1 0xA PUSH1 0x0 SLOAD PUSH2 0x6A SWAP2 SWAP1 PUSH2 0xB0 JUMP JUMPDEST SWAP1 POP PUSH2 0x83 JUMP JUMPDEST PUSH1 0x1 PUSH1 0x0 SLOAD PUSH2 0x80 SWAP2 SWAP1 PUSH2 0xB0 JUMP JUMPDEST SWAP1 POP JUMPDEST SWAP1 JUMP JUMPDEST PUSH2 0x8F DUP2 PUSH2 0x106 JUMP JUMPDEST DUP3 MSTORE POP POP JUMP JUMPDEST PUSH1 0x0 PUSH1 0x20 DUP3 ADD SWAP1 POP PUSH2 0xAA PUSH1 0x0 DUP4 ADD DUP5 PUSH2 0x86 JUMP JUMPDEST SWAP3 SWAP2 POP POP JUMP JUMPDEST PUSH1 0x0 PUSH2 0xBB DUP3 PUSH2 0x106 JUMP JUMPDEST SWAP2 POP PUSH2 0xC6 DUP4 PUSH2 0x106 JUMP JUMPDEST SWAP3 POP DUP3 PUSH32 0xFFFFFFFFFFFFFFFFFFFFFFFFFFFFFFFFFFFFFFFFFFFFFFFFFFFFFFFFFFFFFFFF SUB DUP3 GT ISZERO PUSH2 0xFB JUMPI PUSH2 0xFA PUSH2 0x110 JUMP JUMPDEST JUMPDEST DUP3 DUP3 ADD SWAP1 POP SWAP3 SWAP2 POP POP JUMP JUMPDEST PUSH1 0x0 DUP2 SWAP1 POP SWAP2 SWAP1 POP JUMP JUMPDEST PUSH32 0x4E487B7100000000000000000000000000000000000000000000000000000000 PUSH1 0x0 MSTORE PUSH1 0x11 PUSH1 0x4 MSTORE PUSH1 0x24 PUSH1 0x0 REVERT INVALID LOG2 PUSH5 0x6970667358 0x22 SLT KECCAK256 SWAP5 TIMESTAMP DUP12 ORIGIN 0xFC 0x4C PUSH5 0xD594094955 PUSH7 0x4F0B40EB71ABD7 EXTCODEHASH PUSH8 0xBEAEA0DC4FB2D680 MSTORE8 0xAE PUSH5 0x736F6C6343 STOP ADDMOD SMOD STOP CALLER "
				},
				"gasEstimates": {
					"creation": {
						"codeDepositCost": "74600",
						"executionCost": "22229",
						"totalCost": "96829"
					},
					"external": {
						"airDrop()": "infinite"
					}
				},
				"methodIdentifiers": {
					"airDrop()": "ca5d0880"
				}
			},
			"storageLayout": {
				"storage": [
					{
						"astId": 4,
						"contract": "Soidity basics/assignment.sol:Assignemnt",
						"label": "stackingWallet",
						"offset": 0,
						"slot": "0",
						"type": "t_uint256"
					}
				],
				"types": {
					"t_uint256": {
						"encoding": "inplace",
						"label": "uint256",
						"numberOfBytes": "32"
					}
				}
			},
			"userdoc": {
				"kind": "user",
				"methods": {},
				"version": 1
			}
		}
	}
}