{
	"Soidity basics/Basics2.sol": {
		"DecsionMaking": {
			"abi": [
				{
					"inputs": [],
					"name": "validateOranges",
					"outputs": [
						{
							"internalType": "bool",
							"name": "",
							"type": "bool"
						}
					],
					"stateMutability": "view",
					"type": "function"
				}
			],
			"devdoc": {
				"kind": "dev",
				"methods": {},
				"version": 1
			},
			"evm": {
				"assembly": "    /* \"Soidity basics/Basics2.sol\":38:412  contract DecsionMaking {\r... */\n  mstore(0x40, 0x80)\n    /* \"Soidity basics/Basics2.sol\":188:189  5 */\n  0x05\n    /* \"Soidity basics/Basics2.sol\":173:189  uint oranges = 5 */\n  0x00\n  sstore\n    /* \"Soidity basics/Basics2.sol\":38:412  contract DecsionMaking {\r... */\n  callvalue\n  dup1\n  iszero\n  tag_1\n  jumpi\n  0x00\n  dup1\n  revert\ntag_1:\n  pop\n  dataSize(sub_0)\n  dup1\n  dataOffset(sub_0)\n  0x00\n  codecopy\n  0x00\n  return\nstop\n\nsub_0: assembly {\n        /* \"Soidity basics/Basics2.sol\":38:412  contract DecsionMaking {\r... */\n      mstore(0x40, 0x80)\n      callvalue\n      dup1\n      iszero\n      tag_1\n      jumpi\n      0x00\n      dup1\n      revert\n    tag_1:\n      pop\n      jumpi(tag_2, lt(calldatasize, 0x04))\n      shr(0xe0, calldataload(0x00))\n      dup1\n      0xb4a4fad8\n      eq\n      tag_3\n      jumpi\n    tag_2:\n      0x00\n      dup1\n      revert\n        /* \"Soidity basics/Basics2.sol\":198:407  function validateOranges() public view returns(bool) {\r... */\n    tag_3:\n      tag_4\n      tag_5\n      jump\t// in\n    tag_4:\n      mload(0x40)\n      tag_6\n      swap2\n      swap1\n      tag_7\n      jump\t// in\n    tag_6:\n      mload(0x40)\n      dup1\n      swap2\n      sub\n      swap1\n      return\n    tag_5:\n        /* \"Soidity basics/Basics2.sol\":245:249  bool */\n      0x00\n        /* \"Soidity basics/Basics2.sol\":359:360  5 */\n      0x05\n        /* \"Soidity basics/Basics2.sol\":347:354  oranges */\n      sload(0x00)\n        /* \"Soidity basics/Basics2.sol\":347:360  oranges ==  5 */\n      eq\n        /* \"Soidity basics/Basics2.sol\":344:400  if(oranges ==  5) {\r... */\n      iszero\n      tag_9\n      jumpi\n        /* \"Soidity basics/Basics2.sol\":384:388  true */\n      0x01\n        /* \"Soidity basics/Basics2.sol\":377:388  return true */\n      swap1\n      pop\n      jump(tag_8)\n        /* \"Soidity basics/Basics2.sol\":344:400  if(oranges ==  5) {\r... */\n    tag_9:\n        /* \"Soidity basics/Basics2.sol\":198:407  function validateOranges() public view returns(bool) {\r... */\n    tag_8:\n      swap1\n      jump\t// out\n        /* \"#utility.yul\":7:116   */\n    tag_11:\n        /* \"#utility.yul\":88:109   */\n      tag_13\n        /* \"#utility.yul\":103:108   */\n      dup2\n        /* \"#utility.yul\":88:109   */\n      tag_14\n      jump\t// in\n    tag_13:\n        /* \"#utility.yul\":83:86   */\n      dup3\n        /* \"#utility.yul\":76:110   */\n      mstore\n        /* \"#utility.yul\":7:116   */\n      pop\n      pop\n      jump\t// out\n        /* \"#utility.yul\":122:332   */\n    tag_7:\n        /* \"#utility.yul\":209:213   */\n      0x00\n        /* \"#utility.yul\":247:249   */\n      0x20\n        /* \"#utility.yul\":236:245   */\n      dup3\n        /* \"#utility.yul\":232:250   */\n      add\n        /* \"#utility.yul\":224:250   */\n      swap1\n      pop\n        /* \"#utility.yul\":260:325   */\n      tag_16\n        /* \"#utility.yul\":322:323   */\n      0x00\n        /* \"#utility.yul\":311:320   */\n      dup4\n        /* \"#utility.yul\":307:324   */\n      add\n        /* \"#utility.yul\":298:304   */\n      dup5\n        /* \"#utility.yul\":260:325   */\n      tag_11\n      jump\t// in\n    tag_16:\n        /* \"#utility.yul\":122:332   */\n      swap3\n      swap2\n      pop\n      pop\n      jump\t// out\n        /* \"#utility.yul\":338:428   */\n    tag_14:\n        /* \"#utility.yul\":372:379   */\n      0x00\n        /* \"#utility.yul\":415:420   */\n      dup2\n        /* \"#utility.yul\":408:421   */\n      iszero\n        /* \"#utility.yul\":401:422   */\n      iszero\n        /* \"#utility.yul\":390:422   */\n      swap1\n      pop\n        /* \"#utility.yul\":338:428   */\n      swap2\n      swap1\n      pop\n      jump\t// out\n\n    auxdata: 0xa2646970667358221220a42e1ac8f397b132419299e2567239a12e781eaa9ff01dc0416674240192e6e964736f6c63430008070033\n}\n",
				"bytecode": {
					"linkReferences": {},
					"object": "6080604052600560005534801561001557600080fd5b5060c7806100246000396000f3fe6080604052348015600f57600080fd5b506004361060285760003560e01c8063b4a4fad814602d575b600080fd5b60336047565b604051603e9190606c565b60405180910390f35b600060056000541415605b5760019050605c565b5b90565b6066816085565b82525050565b6000602082019050607f6000830184605f565b92915050565b6000811515905091905056fea2646970667358221220a42e1ac8f397b132419299e2567239a12e781eaa9ff01dc0416674240192e6e964736f6c63430008070033",
					"opcodes": "PUSH1 0x80 PUSH1 0x40 MSTORE PUSH1 0x5 PUSH1 0x0 SSTORE CALLVALUE DUP1 ISZERO PUSH2 0x15 JUMPI PUSH1 0x0 DUP1 REVERT JUMPDEST POP PUSH1 0xC7 DUP1 PUSH2 0x24 PUSH1 0x0 CODECOPY PUSH1 0x0 RETURN INVALID PUSH1 0x80 PUSH1 0x40 MSTORE CALLVALUE DUP1 ISZERO PUSH1 0xF JUMPI PUSH1 0x0 DUP1 REVERT JUMPDEST POP PUSH1 0x4 CALLDATASIZE LT PUSH1 0x28 JUMPI PUSH1 0x0 CALLDATALOAD PUSH1 0xE0 SHR DUP1 PUSH4 0xB4A4FAD8 EQ PUSH1 0x2D JUMPI JUMPDEST PUSH1 0x0 DUP1 REVERT JUMPDEST PUSH1 0x33 PUSH1 0x47 JUMP JUMPDEST PUSH1 0x40 MLOAD PUSH1 0x3E SWAP2 SWAP1 PUSH1 0x6C JUMP JUMPDEST PUSH1 0x40 MLOAD DUP1 SWAP2 SUB SWAP1 RETURN JUMPDEST PUSH1 0x0 PUSH1 0x5 PUSH1 0x0 SLOAD EQ ISZERO PUSH1 0x5B JUMPI PUSH1 0x1 SWAP1 POP PUSH1 0x5C JUMP JUMPDEST JUMPDEST SWAP1 JUMP JUMPDEST PUSH1 0x66 DUP2 PUSH1 0x85 JUMP JUMPDEST DUP3 MSTORE POP POP JUMP JUMPDEST PUSH1 0x0 PUSH1 0x20 DUP3 ADD SWAP1 POP PUSH1 0x7F PUSH1 0x0 DUP4 ADD DUP5 PUSH1 0x5F JUMP JUMPDEST SWAP3 SWAP2 POP POP JUMP JUMPDEST PUSH1 0x0 DUP2 ISZERO ISZERO SWAP1 POP SWAP2 SWAP1 POP JUMP INVALID LOG2 PUSH5 0x6970667358 0x22 SLT KECCAK256 LOG4 0x2E BYTE 0xC8 RETURN SWAP8 0xB1 ORIGIN COINBASE SWAP3 SWAP10 0xE2 JUMP PUSH19 0x39A12E781EAA9FF01DC0416674240192E6E964 PUSH20 0x6F6C634300080700330000000000000000000000 "
				},
				"gasEstimates": {
					"creation": {
						"codeDepositCost": "39800",
						"executionCost": "22199",
						"totalCost": "61999"
					},
					"external": {
						"validateOranges()": "2458"
					}
				},
				"methodIdentifiers": {
					"validateOranges()": "b4a4fad8"
				}
			},
			"storageLayout": {
				"storage": [
					{
						"astId": 4,
						"contract": "Soidity basics/Basics2.sol:DecsionMaking",
						"label": "oranges",
						"offset": 0,
						"slot": "0",
						"type": "t_uint256"
					}
				],
				"types": {
					"t_uint256": {
						"encoding": "inplace",
						"label": "uint256",
						"numberOfBytes": "32"
					}
				}
			},
			"userdoc": {
				"kind": "user",
				"methods": {},
				"version": 1
			}
		}
	}
}