{
	"functions/functions.sol": {
		"multiplyCalculator": {
			"abi": [
				{
					"inputs": [
						{
							"internalType": "uint256",
							"name": "a",
							"type": "uint256"
						},
						{
							"internalType": "uint256",
							"name": "b",
							"type": "uint256"
						}
					],
					"name": "getaddition",
					"outputs": [
						{
							"internalType": "uint256",
							"name": "",
							"type": "uint256"
						}
					],
					"stateMutability": "view",
					"type": "function"
				},
				{
					"inputs": [
						{
							"internalType": "uint256",
							"name": "c",
							"type": "uint256"
						},
						{
							"internalType": "uint256",
							"name": "d",
							"type": "uint256"
						}
					],
					"name": "getmultiplication",
					"outputs": [
						{
							"internalType": "uint256",
							"name": "",
							"type": "uint256"
						}
					],
					"stateMutability": "view",
					"type": "function"
				}
			],
			"devdoc": {
				"kind": "dev",
				"methods": {},
				"version": 1
			},
			"evm": {
				"assembly": "    /* \"functions/functions.sol\":221:506  contract multiplyCalculator {\r... */\n  mstore(0x40, 0x80)\n  callvalue\n  dup1\n  iszero\n  tag_1\n  jumpi\n  0x00\n  dup1\n  revert\ntag_1:\n  pop\n  dataSize(sub_0)\n  dup1\n  dataOffset(sub_0)\n  0x00\n  codecopy\n  0x00\n  return\nstop\n\nsub_0: assembly {\n        /* \"functions/functions.sol\":221:506  contract multiplyCalculator {\r... */\n      mstore(0x40, 0x80)\n      callvalue\n      dup1\n      iszero\n      tag_1\n      jumpi\n      0x00\n      dup1\n      revert\n    tag_1:\n      pop\n      jumpi(tag_2, lt(calldatasize, 0x04))\n      shr(0xe0, calldataload(0x00))\n      dup1\n      0x165eace3\n      eq\n      tag_3\n      jumpi\n      dup1\n      0x431cef07\n      eq\n      tag_4\n      jumpi\n    tag_2:\n      0x00\n      dup1\n      revert\n        /* \"functions/functions.sol\":256:372  function getaddition(uint a, uint b)  public view returns(uint) {\r... */\n    tag_3:\n      tag_5\n      0x04\n      dup1\n      calldatasize\n      sub\n      dup2\n      add\n      swap1\n      tag_6\n      swap2\n      swap1\n      tag_7\n      jump\t// in\n    tag_6:\n      tag_8\n      jump\t// in\n    tag_5:\n      mload(0x40)\n      tag_9\n      swap2\n      swap1\n      tag_10\n      jump\t// in\n    tag_9:\n      mload(0x40)\n      dup1\n      swap2\n      sub\n      swap1\n      return\n        /* \"functions/functions.sol\":380:503  function getmultiplication(uint c, uint d)  public view returns(uint) {\r... */\n    tag_4:\n      tag_11\n      0x04\n      dup1\n      calldatasize\n      sub\n      dup2\n      add\n      swap1\n      tag_12\n      swap2\n      swap1\n      tag_7\n      jump\t// in\n    tag_12:\n      tag_13\n      jump\t// in\n    tag_11:\n      mload(0x40)\n      tag_14\n      swap2\n      swap1\n      tag_10\n      jump\t// in\n    tag_14:\n      mload(0x40)\n      dup1\n      swap2\n      sub\n      swap1\n      return\n        /* \"functions/functions.sol\":256:372  function getaddition(uint a, uint b)  public view returns(uint) {\r... */\n    tag_8:\n        /* \"functions/functions.sol\":314:318  uint */\n      0x00\n        /* \"functions/functions.sol\":331:337  uint c */\n      dup1\n        /* \"functions/functions.sol\":344:345  b */\n      dup3\n        /* \"functions/functions.sol\":340:341  a */\n      dup5\n        /* \"functions/functions.sol\":340:345  a + b */\n      tag_16\n      swap2\n      swap1\n      tag_17\n      jump\t// in\n    tag_16:\n        /* \"functions/functions.sol\":331:345  uint c = a + b */\n      swap1\n      pop\n        /* \"functions/functions.sol\":363:364  c */\n      dup1\n        /* \"functions/functions.sol\":356:364  return c */\n      swap2\n      pop\n      pop\n        /* \"functions/functions.sol\":256:372  function getaddition(uint a, uint b)  public view returns(uint) {\r... */\n      swap3\n      swap2\n      pop\n      pop\n      jump\t// out\n        /* \"functions/functions.sol\":380:503  function getmultiplication(uint c, uint d)  public view returns(uint) {\r... */\n    tag_13:\n        /* \"functions/functions.sol\":444:448  uint */\n      0x00\n        /* \"functions/functions.sol\":461:467  uint e */\n      dup1\n        /* \"functions/functions.sol\":474:475  d */\n      dup3\n        /* \"functions/functions.sol\":470:471  c */\n      dup5\n        /* \"functions/functions.sol\":470:475  c * d */\n      tag_19\n      swap2\n      swap1\n      tag_20\n      jump\t// in\n    tag_19:\n        /* \"functions/functions.sol\":461:475  uint e = c * d */\n      swap1\n      pop\n        /* \"functions/functions.sol\":493:494  e */\n      dup1\n        /* \"functions/functions.sol\":486:494  return e */\n      swap2\n      pop\n      pop\n        /* \"functions/functions.sol\":380:503  function getmultiplication(uint c, uint d)  public view returns(uint) {\r... */\n      swap3\n      swap2\n      pop\n      pop\n      jump\t// out\n        /* \"#utility.yul\":7:146   */\n    tag_22:\n        /* \"#utility.yul\":53:58   */\n      0x00\n        /* \"#utility.yul\":91:97   */\n      dup2\n        /* \"#utility.yul\":78:98   */\n      calldataload\n        /* \"#utility.yul\":69:98   */\n      swap1\n      pop\n        /* \"#utility.yul\":107:140   */\n      tag_24\n        /* \"#utility.yul\":134:139   */\n      dup2\n        /* \"#utility.yul\":107:140   */\n      tag_25\n      jump\t// in\n    tag_24:\n        /* \"#utility.yul\":7:146   */\n      swap3\n      swap2\n      pop\n      pop\n      jump\t// out\n        /* \"#utility.yul\":152:626   */\n    tag_7:\n        /* \"#utility.yul\":220:226   */\n      0x00\n        /* \"#utility.yul\":228:234   */\n      dup1\n        /* \"#utility.yul\":277:279   */\n      0x40\n        /* \"#utility.yul\":265:274   */\n      dup4\n        /* \"#utility.yul\":256:263   */\n      dup6\n        /* \"#utility.yul\":252:275   */\n      sub\n        /* \"#utility.yul\":248:280   */\n      slt\n        /* \"#utility.yul\":245:364   */\n      iszero\n      tag_27\n      jumpi\n        /* \"#utility.yul\":283:362   */\n      tag_28\n      tag_29\n      jump\t// in\n    tag_28:\n        /* \"#utility.yul\":245:364   */\n    tag_27:\n        /* \"#utility.yul\":403:404   */\n      0x00\n        /* \"#utility.yul\":428:481   */\n      tag_30\n        /* \"#utility.yul\":473:480   */\n      dup6\n        /* \"#utility.yul\":464:470   */\n      dup3\n        /* \"#utility.yul\":453:462   */\n      dup7\n        /* \"#utility.yul\":449:471   */\n      add\n        /* \"#utility.yul\":428:481   */\n      tag_22\n      jump\t// in\n    tag_30:\n        /* \"#utility.yul\":418:481   */\n      swap3\n      pop\n        /* \"#utility.yul\":374:491   */\n      pop\n        /* \"#utility.yul\":530:532   */\n      0x20\n        /* \"#utility.yul\":556:609   */\n      tag_31\n        /* \"#utility.yul\":601:608   */\n      dup6\n        /* \"#utility.yul\":592:598   */\n      dup3\n        /* \"#utility.yul\":581:590   */\n      dup7\n        /* \"#utility.yul\":577:599   */\n      add\n        /* \"#utility.yul\":556:609   */\n      tag_22\n      jump\t// in\n    tag_31:\n        /* \"#utility.yul\":546:609   */\n      swap2\n      pop\n        /* \"#utility.yul\":501:619   */\n      pop\n        /* \"#utility.yul\":152:626   */\n      swap3\n      pop\n      swap3\n      swap1\n      pop\n      jump\t// out\n        /* \"#utility.yul\":632:750   */\n    tag_32:\n        /* \"#utility.yul\":719:743   */\n      tag_34\n        /* \"#utility.yul\":737:742   */\n      dup2\n        /* \"#utility.yul\":719:743   */\n      tag_35\n      jump\t// in\n    tag_34:\n        /* \"#utility.yul\":714:717   */\n      dup3\n        /* \"#utility.yul\":707:744   */\n      mstore\n        /* \"#utility.yul\":632:750   */\n      pop\n      pop\n      jump\t// out\n        /* \"#utility.yul\":756:978   */\n    tag_10:\n        /* \"#utility.yul\":849:853   */\n      0x00\n        /* \"#utility.yul\":887:889   */\n      0x20\n        /* \"#utility.yul\":876:885   */\n      dup3\n        /* \"#utility.yul\":872:890   */\n      add\n        /* \"#utility.yul\":864:890   */\n      swap1\n      pop\n        /* \"#utility.yul\":900:971   */\n      tag_37\n        /* \"#utility.yul\":968:969   */\n      0x00\n        /* \"#utility.yul\":957:966   */\n      dup4\n        /* \"#utility.yul\":953:970   */\n      add\n        /* \"#utility.yul\":944:950   */\n      dup5\n        /* \"#utility.yul\":900:971   */\n      tag_32\n      jump\t// in\n    tag_37:\n        /* \"#utility.yul\":756:978   */\n      swap3\n      swap2\n      pop\n      pop\n      jump\t// out\n        /* \"#utility.yul\":1065:1370   */\n    tag_17:\n        /* \"#utility.yul\":1105:1108   */\n      0x00\n        /* \"#utility.yul\":1124:1144   */\n      tag_41\n        /* \"#utility.yul\":1142:1143   */\n      dup3\n        /* \"#utility.yul\":1124:1144   */\n      tag_35\n      jump\t// in\n    tag_41:\n        /* \"#utility.yul\":1119:1144   */\n      swap2\n      pop\n        /* \"#utility.yul\":1158:1178   */\n      tag_42\n        /* \"#utility.yul\":1176:1177   */\n      dup4\n        /* \"#utility.yul\":1158:1178   */\n      tag_35\n      jump\t// in\n    tag_42:\n        /* \"#utility.yul\":1153:1178   */\n      swap3\n      pop\n        /* \"#utility.yul\":1312:1313   */\n      dup3\n        /* \"#utility.yul\":1244:1310   */\n      0xffffffffffffffffffffffffffffffffffffffffffffffffffffffffffffffff\n        /* \"#utility.yul\":1240:1314   */\n      sub\n        /* \"#utility.yul\":1237:1238   */\n      dup3\n        /* \"#utility.yul\":1234:1315   */\n      gt\n        /* \"#utility.yul\":1231:1338   */\n      iszero\n      tag_43\n      jumpi\n        /* \"#utility.yul\":1318:1336   */\n      tag_44\n      tag_45\n      jump\t// in\n    tag_44:\n        /* \"#utility.yul\":1231:1338   */\n    tag_43:\n        /* \"#utility.yul\":1362:1363   */\n      dup3\n        /* \"#utility.yul\":1359:1360   */\n      dup3\n        /* \"#utility.yul\":1355:1364   */\n      add\n        /* \"#utility.yul\":1348:1364   */\n      swap1\n      pop\n        /* \"#utility.yul\":1065:1370   */\n      swap3\n      swap2\n      pop\n      pop\n      jump\t// out\n        /* \"#utility.yul\":1376:1724   */\n    tag_20:\n        /* \"#utility.yul\":1416:1423   */\n      0x00\n        /* \"#utility.yul\":1439:1459   */\n      tag_47\n        /* \"#utility.yul\":1457:1458   */\n      dup3\n        /* \"#utility.yul\":1439:1459   */\n      tag_35\n      jump\t// in\n    tag_47:\n        /* \"#utility.yul\":1434:1459   */\n      swap2\n      pop\n        /* \"#utility.yul\":1473:1493   */\n      tag_48\n        /* \"#utility.yul\":1491:1492   */\n      dup4\n        /* \"#utility.yul\":1473:1493   */\n      tag_35\n      jump\t// in\n    tag_48:\n        /* \"#utility.yul\":1468:1493   */\n      swap3\n      pop\n        /* \"#utility.yul\":1661:1662   */\n      dup2\n        /* \"#utility.yul\":1593:1659   */\n      0xffffffffffffffffffffffffffffffffffffffffffffffffffffffffffffffff\n        /* \"#utility.yul\":1589:1663   */\n      div\n        /* \"#utility.yul\":1586:1587   */\n      dup4\n        /* \"#utility.yul\":1583:1664   */\n      gt\n        /* \"#utility.yul\":1578:1579   */\n      dup3\n        /* \"#utility.yul\":1571:1580   */\n      iszero\n        /* \"#utility.yul\":1564:1581   */\n      iszero\n        /* \"#utility.yul\":1560:1665   */\n      and\n        /* \"#utility.yul\":1557:1688   */\n      iszero\n      tag_49\n      jumpi\n        /* \"#utility.yul\":1668:1686   */\n      tag_50\n      tag_45\n      jump\t// in\n    tag_50:\n        /* \"#utility.yul\":1557:1688   */\n    tag_49:\n        /* \"#utility.yul\":1716:1717   */\n      dup3\n        /* \"#utility.yul\":1713:1714   */\n      dup3\n        /* \"#utility.yul\":1709:1718   */\n      mul\n        /* \"#utility.yul\":1698:1718   */\n      swap1\n      pop\n        /* \"#utility.yul\":1376:1724   */\n      swap3\n      swap2\n      pop\n      pop\n      jump\t// out\n        /* \"#utility.yul\":1730:1807   */\n    tag_35:\n        /* \"#utility.yul\":1767:1774   */\n      0x00\n        /* \"#utility.yul\":1796:1801   */\n      dup2\n        /* \"#utility.yul\":1785:1801   */\n      swap1\n      pop\n        /* \"#utility.yul\":1730:1807   */\n      swap2\n      swap1\n      pop\n      jump\t// out\n        /* \"#utility.yul\":1813:1993   */\n    tag_45:\n        /* \"#utility.yul\":1861:1938   */\n      0x4e487b7100000000000000000000000000000000000000000000000000000000\n        /* \"#utility.yul\":1858:1859   */\n      0x00\n        /* \"#utility.yul\":1851:1939   */\n      mstore\n        /* \"#utility.yul\":1958:1962   */\n      0x11\n        /* \"#utility.yul\":1955:1956   */\n      0x04\n        /* \"#utility.yul\":1948:1963   */\n      mstore\n        /* \"#utility.yul\":1982:1986   */\n      0x24\n        /* \"#utility.yul\":1979:1980   */\n      0x00\n        /* \"#utility.yul\":1972:1987   */\n      revert\n        /* \"#utility.yul\":2122:2239   */\n    tag_29:\n        /* \"#utility.yul\":2231:2232   */\n      0x00\n        /* \"#utility.yul\":2228:2229   */\n      dup1\n        /* \"#utility.yul\":2221:2233   */\n      revert\n        /* \"#utility.yul\":2245:2367   */\n    tag_25:\n        /* \"#utility.yul\":2318:2342   */\n      tag_57\n        /* \"#utility.yul\":2336:2341   */\n      dup2\n        /* \"#utility.yul\":2318:2342   */\n      tag_35\n      jump\t// in\n    tag_57:\n        /* \"#utility.yul\":2311:2316   */\n      dup2\n        /* \"#utility.yul\":2308:2343   */\n      eq\n        /* \"#utility.yul\":2298:2361   */\n      tag_58\n      jumpi\n        /* \"#utility.yul\":2357:2358   */\n      0x00\n        /* \"#utility.yul\":2354:2355   */\n      dup1\n        /* \"#utility.yul\":2347:2359   */\n      revert\n        /* \"#utility.yul\":2298:2361   */\n    tag_58:\n        /* \"#utility.yul\":2245:2367   */\n      pop\n      jump\t// out\n\n    auxdata: 0xa2646970667358221220968ddc3057d4c96905188c42dac6decb390dc8395890b75e837dbe318ac04e0b64736f6c63430008070033\n}\n",
				"bytecode": {
					"linkReferences": {},
					"object": "608060405234801561001057600080fd5b5061028b806100206000396000f3fe608060405234801561001057600080fd5b50600436106100365760003560e01c8063165eace31461003b578063431cef071461006b575b600080fd5b610055600480360381019061005091906100e6565b61009b565b6040516100629190610135565b60405180910390f35b610085600480360381019061008091906100e6565b6100b6565b6040516100929190610135565b60405180910390f35b60008082846100aa9190610150565b90508091505092915050565b60008082846100c591906101a6565b90508091505092915050565b6000813590506100e08161023e565b92915050565b600080604083850312156100fd576100fc610239565b5b600061010b858286016100d1565b925050602061011c858286016100d1565b9150509250929050565b61012f81610200565b82525050565b600060208201905061014a6000830184610126565b92915050565b600061015b82610200565b915061016683610200565b9250827fffffffffffffffffffffffffffffffffffffffffffffffffffffffffffffffff0382111561019b5761019a61020a565b5b828201905092915050565b60006101b182610200565b91506101bc83610200565b9250817fffffffffffffffffffffffffffffffffffffffffffffffffffffffffffffffff04831182151516156101f5576101f461020a565b5b828202905092915050565b6000819050919050565b7f4e487b7100000000000000000000000000000000000000000000000000000000600052601160045260246000fd5b600080fd5b61024781610200565b811461025257600080fd5b5056fea2646970667358221220968ddc3057d4c96905188c42dac6decb390dc8395890b75e837dbe318ac04e0b64736f6c63430008070033",
					"opcodes": "PUSH1 0x80 PUSH1 0x40 MSTORE CALLVALUE DUP1 ISZERO PUSH2 0x10 JUMPI PUSH1 0x0 DUP1 REVERT JUMPDEST POP PUSH2 0x28B DUP1 PUSH2 0x20 PUSH1 0x0 CODECOPY PUSH1 0x0 RETURN INVALID PUSH1 0x80 PUSH1 0x40 MSTORE CALLVALUE DUP1 ISZERO PUSH2 0x10 JUMPI PUSH1 0x0 DUP1 REVERT JUMPDEST POP PUSH1 0x4 CALLDATASIZE LT PUSH2 0x36 JUMPI PUSH1 0x0 CALLDATALOAD PUSH1 0xE0 SHR DUP1 PUSH4 0x165EACE3 EQ PUSH2 0x3B JUMPI DUP1 PUSH4 0x431CEF07 EQ PUSH2 0x6B JUMPI JUMPDEST PUSH1 0x0 DUP1 REVERT JUMPDEST PUSH2 0x55 PUSH1 0x4 DUP1 CALLDATASIZE SUB DUP2 ADD SWAP1 PUSH2 0x50 SWAP2 SWAP1 PUSH2 0xE6 JUMP JUMPDEST PUSH2 0x9B JUMP JUMPDEST PUSH1 0x40 MLOAD PUSH2 0x62 SWAP2 SWAP1 PUSH2 0x135 JUMP JUMPDEST PUSH1 0x40 MLOAD DUP1 SWAP2 SUB SWAP1 RETURN JUMPDEST PUSH2 0x85 PUSH1 0x4 DUP1 CALLDATASIZE SUB DUP2 ADD SWAP1 PUSH2 0x80 SWAP2 SWAP1 PUSH2 0xE6 JUMP JUMPDEST PUSH2 0xB6 JUMP JUMPDEST PUSH1 0x40 MLOAD PUSH2 0x92 SWAP2 SWAP1 PUSH2 0x135 JUMP JUMPDEST PUSH1 0x40 MLOAD DUP1 SWAP2 SUB SWAP1 RETURN JUMPDEST PUSH1 0x0 DUP1 DUP3 DUP5 PUSH2 0xAA SWAP2 SWAP1 PUSH2 0x150 JUMP JUMPDEST SWAP1 POP DUP1 SWAP2 POP POP SWAP3 SWAP2 POP POP JUMP JUMPDEST PUSH1 0x0 DUP1 DUP3 DUP5 PUSH2 0xC5 SWAP2 SWAP1 PUSH2 0x1A6 JUMP JUMPDEST SWAP1 POP DUP1 SWAP2 POP POP SWAP3 SWAP2 POP POP JUMP JUMPDEST PUSH1 0x0 DUP2 CALLDATALOAD SWAP1 POP PUSH2 0xE0 DUP2 PUSH2 0x23E JUMP JUMPDEST SWAP3 SWAP2 POP POP JUMP JUMPDEST PUSH1 0x0 DUP1 PUSH1 0x40 DUP4 DUP6 SUB SLT ISZERO PUSH2 0xFD JUMPI PUSH2 0xFC PUSH2 0x239 JUMP JUMPDEST JUMPDEST PUSH1 0x0 PUSH2 0x10B DUP6 DUP3 DUP7 ADD PUSH2 0xD1 JUMP JUMPDEST SWAP3 POP POP PUSH1 0x20 PUSH2 0x11C DUP6 DUP3 DUP7 ADD PUSH2 0xD1 JUMP JUMPDEST SWAP2 POP POP SWAP3 POP SWAP3 SWAP1 POP JUMP JUMPDEST PUSH2 0x12F DUP2 PUSH2 0x200 JUMP JUMPDEST DUP3 MSTORE POP POP JUMP JUMPDEST PUSH1 0x0 PUSH1 0x20 DUP3 ADD SWAP1 POP PUSH2 0x14A PUSH1 0x0 DUP4 ADD DUP5 PUSH2 0x126 JUMP JUMPDEST SWAP3 SWAP2 POP POP JUMP JUMPDEST PUSH1 0x0 PUSH2 0x15B DUP3 PUSH2 0x200 JUMP JUMPDEST SWAP2 POP PUSH2 0x166 DUP4 PUSH2 0x200 JUMP JUMPDEST SWAP3 POP DUP3 PUSH32 0xFFFFFFFFFFFFFFFFFFFFFFFFFFFFFFFFFFFFFFFFFFFFFFFFFFFFFFFFFFFFFFFF SUB DUP3 GT ISZERO PUSH2 0x19B JUMPI PUSH2 0x19A PUSH2 0x20A JUMP JUMPDEST JUMPDEST DUP3 DUP3 ADD SWAP1 POP SWAP3 SWAP2 POP POP JUMP JUMPDEST PUSH1 0x0 PUSH2 0x1B1 DUP3 PUSH2 0x200 JUMP JUMPDEST SWAP2 POP PUSH2 0x1BC DUP4 PUSH2 0x200 JUMP JUMPDEST SWAP3 POP DUP2 PUSH32 0xFFFFFFFFFFFFFFFFFFFFFFFFFFFFFFFFFFFFFFFFFFFFFFFFFFFFFFFFFFFFFFFF DIV DUP4 GT DUP3 ISZERO ISZERO AND ISZERO PUSH2 0x1F5 JUMPI PUSH2 0x1F4 PUSH2 0x20A JUMP JUMPDEST JUMPDEST DUP3 DUP3 MUL SWAP1 POP SWAP3 SWAP2 POP POP JUMP JUMPDEST PUSH1 0x0 DUP2 SWAP1 POP SWAP2 SWAP1 POP JUMP JUMPDEST PUSH32 0x4E487B7100000000000000000000000000000000000000000000000000000000 PUSH1 0x0 MSTORE PUSH1 0x11 PUSH1 0x4 MSTORE PUSH1 0x24 PUSH1 0x0 REVERT JUMPDEST PUSH1 0x0 DUP1 REVERT JUMPDEST PUSH2 0x247 DUP2 PUSH2 0x200 JUMP JUMPDEST DUP2 EQ PUSH2 0x252 JUMPI PUSH1 0x0 DUP1 REVERT JUMPDEST POP JUMP INVALID LOG2 PUSH5 0x6970667358 0x22 SLT KECCAK256 SWAP7 DUP14 0xDC ADDRESS JUMPI 0xD4 0xC9 PUSH10 0x5188C42DAC6DECB390D 0xC8 CODECOPY PC SWAP1 0xB7 0x5E DUP4 PUSH30 0xBE318AC04E0B64736F6C6343000807003300000000000000000000000000 "
				},
				"gasEstimates": {
					"creation": {
						"codeDepositCost": "130200",
						"executionCost": "177",
						"totalCost": "130377"
					},
					"external": {
						"getaddition(uint256,uint256)": "infinite",
						"getmultiplication(uint256,uint256)": "infinite"
					}
				},
				"methodIdentifiers": {
					"getaddition(uint256,uint256)": "165eace3",
					"getmultiplication(uint256,uint256)": "431cef07"
				}
			},
			"storageLayout": {
				"storage": [],
				"types": null
			},
			"userdoc": {
				"kind": "user",
				"methods": {},
				"version": 1
			}
		}
	}
}